{
  "contractName": "Conference",
  "abi": [
    {
      "constant": true,
      "inputs": [],
      "name": "name",
      "outputs": [
        {
          "name": "",
          "type": "string"
        }
      ],
      "payable": false,
      "stateMutability": "view",
      "type": "function"
    },
    {
      "constant": true,
      "inputs": [
        {
          "name": "",
          "type": "address"
        }
      ],
      "name": "participants",
      "outputs": [
        {
          "name": "participantName",
          "type": "string"
        },
        {
          "name": "addr",
          "type": "address"
        },
        {
          "name": "attended",
          "type": "bool"
        },
        {
          "name": "paid",
          "type": "bool"
        }
      ],
      "payable": false,
      "stateMutability": "view",
      "type": "function"
    },
    {
      "constant": true,
      "inputs": [],
      "name": "ended",
      "outputs": [
        {
          "name": "",
          "type": "bool"
        }
      ],
      "payable": false,
      "stateMutability": "view",
      "type": "function"
    },
    {
      "constant": true,
      "inputs": [],
      "name": "registered",
      "outputs": [
        {
          "name": "",
          "type": "uint256"
        }
      ],
      "payable": false,
      "stateMutability": "view",
      "type": "function"
    },
    {
      "constant": true,
      "inputs": [],
      "name": "endedAt",
      "outputs": [
        {
          "name": "",
          "type": "uint256"
        }
      ],
      "payable": false,
      "stateMutability": "view",
      "type": "function"
    },
    {
      "constant": true,
      "inputs": [],
      "name": "payoutAmount",
      "outputs": [
        {
          "name": "",
          "type": "uint256"
        }
      ],
      "payable": false,
      "stateMutability": "view",
      "type": "function"
    },
    {
      "constant": true,
      "inputs": [],
      "name": "limitOfParticipants",
      "outputs": [
        {
          "name": "",
          "type": "uint256"
        }
      ],
      "payable": false,
      "stateMutability": "view",
      "type": "function"
    },
    {
      "constant": false,
      "inputs": [],
      "name": "destroy",
      "outputs": [],
      "payable": false,
      "stateMutability": "nonpayable",
      "type": "function"
    },
    {
      "constant": true,
      "inputs": [],
      "name": "owner",
      "outputs": [
        {
          "name": "",
          "type": "address"
        }
      ],
      "payable": false,
      "stateMutability": "view",
      "type": "function"
    },
    {
      "constant": true,
      "inputs": [],
      "name": "coolingPeriod",
      "outputs": [
        {
          "name": "",
          "type": "uint256"
        }
      ],
      "payable": false,
      "stateMutability": "view",
      "type": "function"
    },
    {
      "constant": true,
      "inputs": [],
      "name": "cancelled",
      "outputs": [
        {
          "name": "",
          "type": "bool"
        }
      ],
      "payable": false,
      "stateMutability": "view",
      "type": "function"
    },
    {
      "constant": true,
      "inputs": [
        {
          "name": "",
          "type": "uint256"
        }
      ],
      "name": "participantsIndex",
      "outputs": [
        {
          "name": "",
          "type": "address"
        }
      ],
      "payable": false,
      "stateMutability": "view",
      "type": "function"
    },
    {
      "constant": true,
      "inputs": [],
      "name": "encryption",
      "outputs": [
        {
          "name": "",
          "type": "string"
        }
      ],
      "payable": false,
      "stateMutability": "view",
      "type": "function"
    },
    {
      "constant": true,
      "inputs": [],
      "name": "confirmationRepository",
      "outputs": [
        {
          "name": "",
          "type": "address"
        }
      ],
      "payable": false,
      "stateMutability": "view",
      "type": "function"
    },
    {
      "constant": true,
      "inputs": [],
      "name": "attended",
      "outputs": [
        {
          "name": "",
          "type": "uint256"
        }
      ],
      "payable": false,
      "stateMutability": "view",
      "type": "function"
    },
    {
      "constant": true,
      "inputs": [],
      "name": "deposit",
      "outputs": [
        {
          "name": "",
          "type": "uint256"
        }
      ],
      "payable": false,
      "stateMutability": "view",
      "type": "function"
    },
    {
      "constant": false,
      "inputs": [
        {
          "name": "newOwner",
          "type": "address"
        }
      ],
      "name": "transferOwnership",
      "outputs": [],
      "payable": false,
      "stateMutability": "nonpayable",
      "type": "function"
    },
    {
      "constant": false,
      "inputs": [
        {
          "name": "_recipient",
          "type": "address"
        }
      ],
      "name": "destroyAndSend",
      "outputs": [],
      "payable": false,
      "stateMutability": "nonpayable",
      "type": "function"
    },
    {
      "inputs": [
        {
          "name": "_name",
          "type": "string"
        },
        {
          "name": "_deposit",
          "type": "uint256"
        },
        {
          "name": "_limitOfParticipants",
          "type": "uint256"
        },
        {
          "name": "_coolingPeriod",
          "type": "uint256"
        },
        {
          "name": "_confirmation_repository_address",
          "type": "address"
        },
        {
          "name": "_encryption",
          "type": "string"
        }
      ],
      "payable": false,
      "stateMutability": "nonpayable",
      "type": "constructor"
    },
    {
      "anonymous": false,
      "inputs": [
        {
          "indexed": false,
          "name": "addr",
          "type": "address"
        },
        {
          "indexed": false,
          "name": "participantName",
          "type": "string"
        },
        {
          "indexed": false,
          "name": "_encryption",
          "type": "string"
        }
      ],
      "name": "RegisterEvent",
      "type": "event"
    },
    {
      "anonymous": false,
      "inputs": [
        {
          "indexed": false,
          "name": "addr",
          "type": "address"
        }
      ],
      "name": "AttendEvent",
      "type": "event"
    },
    {
      "anonymous": false,
      "inputs": [
        {
          "indexed": false,
          "name": "_payout",
          "type": "uint256"
        }
      ],
      "name": "PaybackEvent",
      "type": "event"
    },
    {
      "anonymous": false,
      "inputs": [
        {
          "indexed": false,
          "name": "addr",
          "type": "address"
        },
        {
          "indexed": false,
          "name": "_payout",
          "type": "uint256"
        }
      ],
      "name": "WithdrawEvent",
      "type": "event"
    },
    {
      "anonymous": false,
      "inputs": [],
      "name": "CancelEvent",
      "type": "event"
    },
    {
      "anonymous": false,
      "inputs": [
        {
          "indexed": false,
          "name": "addr",
          "type": "address"
        },
        {
          "indexed": false,
          "name": "leftOver",
          "type": "uint256"
        }
      ],
      "name": "ClearEvent",
      "type": "event"
    },
    {
      "anonymous": false,
      "inputs": [
        {
          "indexed": true,
          "name": "previousOwner",
          "type": "address"
        },
        {
          "indexed": true,
          "name": "newOwner",
          "type": "address"
        }
      ],
      "name": "OwnershipTransferred",
      "type": "event"
    },
    {
      "constant": false,
      "inputs": [
        {
          "name": "_participant",
          "type": "string"
        },
        {
          "name": "_encrypted",
          "type": "string"
        }
      ],
      "name": "registerWithEncryption",
      "outputs": [],
      "payable": true,
      "stateMutability": "payable",
      "type": "function"
    },
    {
      "constant": false,
      "inputs": [
        {
          "name": "_participant",
          "type": "string"
        }
      ],
      "name": "register",
      "outputs": [],
      "payable": true,
      "stateMutability": "payable",
      "type": "function"
    },
    {
      "constant": false,
      "inputs": [
        {
          "name": "_confirmation",
          "type": "bytes32"
        }
      ],
      "name": "attendWithConfirmation",
      "outputs": [],
      "payable": false,
      "stateMutability": "nonpayable",
      "type": "function"
    },
    {
      "constant": false,
      "inputs": [],
      "name": "withdraw",
      "outputs": [],
      "payable": false,
      "stateMutability": "nonpayable",
      "type": "function"
    },
    {
      "constant": true,
      "inputs": [],
      "name": "totalBalance",
      "outputs": [
        {
          "name": "",
          "type": "uint256"
        }
      ],
      "payable": false,
      "stateMutability": "view",
      "type": "function"
    },
    {
      "constant": true,
      "inputs": [],
      "name": "confirmation",
      "outputs": [
        {
          "name": "",
          "type": "bool"
        }
      ],
      "payable": false,
      "stateMutability": "view",
      "type": "function"
    },
    {
      "constant": true,
      "inputs": [
        {
          "name": "_addr",
          "type": "address"
        }
      ],
      "name": "isRegistered",
      "outputs": [
        {
          "name": "",
          "type": "bool"
        }
      ],
      "payable": false,
      "stateMutability": "view",
      "type": "function"
    },
    {
      "constant": true,
      "inputs": [
        {
          "name": "_addr",
          "type": "address"
        }
      ],
      "name": "isAttended",
      "outputs": [
        {
          "name": "",
          "type": "bool"
        }
      ],
      "payable": false,
      "stateMutability": "view",
      "type": "function"
    },
    {
      "constant": true,
      "inputs": [
        {
          "name": "_addr",
          "type": "address"
        }
      ],
      "name": "isPaid",
      "outputs": [
        {
          "name": "",
          "type": "bool"
        }
      ],
      "payable": false,
      "stateMutability": "view",
      "type": "function"
    },
    {
      "constant": true,
      "inputs": [],
      "name": "payout",
      "outputs": [
        {
          "name": "",
          "type": "uint256"
        }
      ],
      "payable": false,
      "stateMutability": "view",
      "type": "function"
    },
    {
      "constant": false,
      "inputs": [],
      "name": "payback",
      "outputs": [],
      "payable": false,
      "stateMutability": "nonpayable",
      "type": "function"
    },
    {
      "constant": false,
      "inputs": [],
      "name": "cancel",
      "outputs": [],
      "payable": false,
      "stateMutability": "nonpayable",
      "type": "function"
    },
    {
      "constant": false,
      "inputs": [],
      "name": "clear",
      "outputs": [],
      "payable": false,
      "stateMutability": "nonpayable",
      "type": "function"
    },
    {
      "constant": false,
      "inputs": [
        {
          "name": "_limitOfParticipants",
          "type": "uint256"
        }
      ],
      "name": "setLimitOfParticipants",
      "outputs": [],
      "payable": false,
      "stateMutability": "nonpayable",
      "type": "function"
    },
    {
      "constant": false,
      "inputs": [
        {
          "name": "_addresses",
          "type": "address[]"
        }
      ],
      "name": "attend",
      "outputs": [],
      "payable": false,
      "stateMutability": "nonpayable",
      "type": "function"
    }
  ],
  "bytecode": "0x606060405234156200001057600080fd5b604051620022bf380380620022bf83398101604052808051820191906020018051906020019091908051906020019091908051906020019091908051906020019091908051820191905050336000806101000a81548173ffffffffffffffffffffffffffffffffffffffff021916908373ffffffffffffffffffffffffffffffffffffffff16021790555060008651141515620000c6578560019080519060200190620000bf92919062000215565b5062000115565b6040805190810160405280600481526020017f5465737400000000000000000000000000000000000000000000000000000000815250600190805190602001906200011392919062000215565b505b6000851415156200012d57846002819055506200013c565b66470de4df8200006002819055505b6000841415156200015457836003819055506200015d565b60146003819055505b60008314151562000175578260088190555062000180565b62093a806008819055505b60008151141515620001a65780600b9080519060200190620001a492919062000215565b505b60008273ffffffffffffffffffffffffffffffffffffffff16141515620002095781600a60006101000a81548173ffffffffffffffffffffffffffffffffffffffff021916908373ffffffffffffffffffffffffffffffffffffffff1602179055505b505050505050620002c4565b828054600181600116156101000203166002900490600052602060002090601f016020900481019282601f106200025857805160ff191683800117855562000289565b8280016001018555821562000289579182015b82811115620002885782518255916020019190600101906200026b565b5b5090506200029891906200029c565b5090565b620002c191905b80821115620002bd576000816000905550600101620002a3565b5090565b90565b611feb80620002d46000396000f3006060604052600436106101a1576000357c0100000000000000000000000000000000000000000000000000000000900463ffffffff16806306fdde03146101a657806309e69ede146102345780630bfcbc5d1461034c57806312fa6feb146103735780632de40ce3146103a05780633ccfd60b146103c95780633d6a71e4146103de57806352efea6e146104075780635d27bff31461041c57806363bd1d4a146104b15780636b46c8c3146104da5780636d006ae8146105035780636ded82f81461052c5780637eef61771461057d57806383197ef0146105aa578063854bec87146105bf5780638da5cb5b146105d45780639328beee14610629578063982495c7146106525780639989a5ae146106ac5780639a82a09a146106cf5780639b25cacb146106fc578063a07f3a561461075f578063a531d362146107b0578063a5bc1e841461083e578063ad7a672f14610893578063b5e10e9a146108bc578063c3c5a547146108e5578063d0e30db014610936578063ea8a1af01461095f578063f2c298be14610974578063f2fde38b146109c6578063f5074f41146109ff575b600080fd5b34156101b157600080fd5b6101b9610a38565b6040518080602001828103825283818151815260200191508051906020019080838360005b838110156101f95780820151818401526020810190506101de565b50505050905090810190601f1680156102265780820380516001836020036101000a031916815260200191505b509250505060405180910390f35b341561023f57600080fd5b61026b600480803573ffffffffffffffffffffffffffffffffffffffff16906020019091905050610ad6565b60405180806020018573ffffffffffffffffffffffffffffffffffffffff1673ffffffffffffffffffffffffffffffffffffffff168152602001841515151581526020018315151515815260200182810382528681815460018160011615610100020316600290048152602001915080546001816001161561010002031660029004801561033a5780601f1061030f5761010080835404028352916020019161033a565b820191906000526020600020905b81548152906001019060200180831161031d57829003601f168201915b50509550505050505060405180910390f35b341561035757600080fd5b610371600480803560001916906020019091905050610b3f565b005b341561037e57600080fd5b610386610d52565b604051808215151515815260200191505060405180910390f35b34156103ab57600080fd5b6103b3610d65565b6040518082815260200191505060405180910390f35b34156103d457600080fd5b6103dc610d6b565b005b34156103e957600080fd5b6103f1610f80565b6040518082815260200191505060405180910390f35b341561041257600080fd5b61041a610f86565b005b6104af600480803590602001908201803590602001908080601f0160208091040260200160405190810160405280939291908181526020018383808284378201915050505050509190803590602001908201803590602001908080601f01602080910402602001604051908101604052809392919081815260200183838082843782019150505050505091905050611127565b005b34156104bc57600080fd5b6104c461128d565b6040518082815260200191505060405180910390f35b34156104e557600080fd5b6104ed6112bd565b6040518082815260200191505060405180910390f35b341561050e57600080fd5b6105166112c3565b6040518082815260200191505060405180910390f35b341561053757600080fd5b610563600480803573ffffffffffffffffffffffffffffffffffffffff169060200190919050506112c9565b604051808215151515815260200191505060405180910390f35b341561058857600080fd5b610590611333565b604051808215151515815260200191505060405180910390f35b34156105b557600080fd5b6105bd61138c565b005b34156105ca57600080fd5b6105d2611421565b005b34156105df57600080fd5b6105e7611503565b604051808273ffffffffffffffffffffffffffffffffffffffff1673ffffffffffffffffffffffffffffffffffffffff16815260200191505060405180910390f35b341561063457600080fd5b61063c611528565b6040518082815260200191505060405180910390f35b341561065d57600080fd5b6106aa60048080359060200190820180359060200190808060200260200160405190810160405280939291908181526020018383602002808284378201915050505050509190505061152e565b005b34156106b757600080fd5b6106cd60048080359060200190919050506116db565b005b34156106da57600080fd5b6106e261175c565b604051808215151515815260200191505060405180910390f35b341561070757600080fd5b61071d600480803590602001909190505061176f565b604051808273ffffffffffffffffffffffffffffffffffffffff1673ffffffffffffffffffffffffffffffffffffffff16815260200191505060405180910390f35b341561076a57600080fd5b610796600480803573ffffffffffffffffffffffffffffffffffffffff169060200190919050506117a2565b604051808215151515815260200191505060405180910390f35b34156107bb57600080fd5b6107c361180c565b6040518080602001828103825283818151815260200191508051906020019080838360005b838110156108035780820151818401526020810190506107e8565b50505050905090810190601f1680156108305780820380516001836020036101000a031916815260200191505b509250505060405180910390f35b341561084957600080fd5b6108516118aa565b604051808273ffffffffffffffffffffffffffffffffffffffff1673ffffffffffffffffffffffffffffffffffffffff16815260200191505060405180910390f35b341561089e57600080fd5b6108a66118d0565b6040518082815260200191505060405180910390f35b34156108c757600080fd5b6108cf6118ef565b6040518082815260200191505060405180910390f35b34156108f057600080fd5b61091c600480803573ffffffffffffffffffffffffffffffffffffffff169060200190919050506118f5565b604051808215151515815260200191505060405180910390f35b341561094157600080fd5b610949611990565b6040518082815260200191505060405180910390f35b341561096a57600080fd5b610972611996565b005b6109c4600480803590602001908201803590602001908080601f01602080910402602001604051908101604052809392919081815260200183838082843782019150505050505091905050611a81565b005b34156109d157600080fd5b6109fd600480803573ffffffffffffffffffffffffffffffffffffffff16906020019091905050611b8d565b005b3415610a0a57600080fd5b610a36600480803573ffffffffffffffffffffffffffffffffffffffff16906020019091905050611ce2565b005b60018054600181600116156101000203166002900480601f016020809104026020016040519081016040528092919081815260200182805460018160011615610100020316600290048015610ace5780601f10610aa357610100808354040283529160200191610ace565b820191906000526020600020905b815481529060010190602001808311610ab157829003601f168201915b505050505081565b600c60205280600052604060002060009150905080600001908060010160009054906101000a900473ffffffffffffffffffffffffffffffffffffffff16908060010160149054906101000a900460ff16908060010160159054906101000a900460ff16905084565b600660009054906101000a900460ff16151515610b5b57600080fd5b610b64336118f5565b1515610b6f57600080fd5b610b78336117a2565b151515610b8457600080fd5b600a60009054906101000a900473ffffffffffffffffffffffffffffffffffffffff1673ffffffffffffffffffffffffffffffffffffffff166396c144f082336000604051602001526040518363ffffffff167c01000000000000000000000000000000000000000000000000000000000281526004018083600019166000191681526020018273ffffffffffffffffffffffffffffffffffffffff1673ffffffffffffffffffffffffffffffffffffffff16815260200192505050602060405180830381600087803b1515610c5957600080fd5b6102c65a03f11515610c6a57600080fd5b505050604051805190501515610c7f57600080fd5b6001600c60003373ffffffffffffffffffffffffffffffffffffffff1673ffffffffffffffffffffffffffffffffffffffff16815260200190815260200160002060010160146101000a81548160ff0219169083151502179055506005600081548092919060010191905055507f1c5e7a37dd4095194684d8f835d2c81b686d64d685032055a7cd02edc7c49ed833604051808273ffffffffffffffffffffffffffffffffffffffff1673ffffffffffffffffffffffffffffffffffffffff16815260200191505060405180910390a150565b600660009054906101000a900460ff1681565b60045481565b6000600660009054906101000a900460ff161515610d8857600080fd5b6000600954111515610d9957600080fd5b600c60003373ffffffffffffffffffffffffffffffffffffffff1673ffffffffffffffffffffffffffffffffffffffff16815260200190815260200160002090503373ffffffffffffffffffffffffffffffffffffffff168160010160009054906101000a900473ffffffffffffffffffffffffffffffffffffffff1673ffffffffffffffffffffffffffffffffffffffff16141515610e3857600080fd5b600660019054906101000a900460ff1680610e6157508060010160149054906101000a900460ff165b1515610e6c57600080fd5b600015158160010160159054906101000a900460ff161515141515610e9057600080fd5b60018160010160156101000a81548160ff0219169083151502179055508060010160009054906101000a900473ffffffffffffffffffffffffffffffffffffffff1673ffffffffffffffffffffffffffffffffffffffff166108fc6009549081150290604051600060405180830381858888f193505050501515610f1057fe5b7f5dba113b49cfa7c90315e8e604e6b506f7abcb909b01dcb19ec39005086e68fc33600954604051808373ffffffffffffffffffffffffffffffffffffffff1673ffffffffffffffffffffffffffffffffffffffff1681526020018281526020019250505060405180910390a150565b60075481565b60008060009054906101000a900473ffffffffffffffffffffffffffffffffffffffff1673ffffffffffffffffffffffffffffffffffffffff163373ffffffffffffffffffffffffffffffffffffffff16141515610fe357600080fd5b600660009054906101000a900460ff161515610ffe57600080fd5b600854600754014211151561101257600080fd5b600660009054906101000a900460ff16151561102d57600080fd5b6110356118d0565b90506000809054906101000a900473ffffffffffffffffffffffffffffffffffffffff1673ffffffffffffffffffffffffffffffffffffffff166108fc829081150290604051600060405180830381858888f19350505050151561109857600080fd5b7f61355a34c3bc2e502a24eba7ad2fb0fd0d05c4f71de8cb041fbe39cd3649665e6000809054906101000a900473ffffffffffffffffffffffffffffffffffffffff1682604051808373ffffffffffffffffffffffffffffffffffffffff1673ffffffffffffffffffffffffffffffffffffffff1681526020018281526020019250505060405180910390a150565b600660009054906101000a900460ff1615151561114357600080fd5b61114c82611d56565b7f8d272c75acbe64f584f00b43ea2e4ac139abac8e8b8f118e5588e14bbb5c4031338383604051808473ffffffffffffffffffffffffffffffffffffffff1673ffffffffffffffffffffffffffffffffffffffff1681526020018060200180602001838103835285818151815260200191508051906020019080838360005b838110156111e65780820151818401526020810190506111cb565b50505050905090810190601f1680156112135780820380516001836020036101000a031916815260200191505b50838103825284818151815260200191508051906020019080838360005b8381101561124c578082015181840152602081019050611231565b50505050905090810190601f1680156112795780820380516001836020036101000a031916815260200191505b509550505050505060405180910390a15050565b60008060055414156112a257600090506112ba565b6005546112ad6118d0565b8115156112b657fe5b0490505b90565b60095481565b60035481565b60006112d4826118f5565b801561132c5750600c60008373ffffffffffffffffffffffffffffffffffffffff1673ffffffffffffffffffffffffffffffffffffffff16815260200190815260200160002060010160159054906101000a900460ff165b9050919050565b60008073ffffffffffffffffffffffffffffffffffffffff16600a60009054906101000a900473ffffffffffffffffffffffffffffffffffffffff1673ffffffffffffffffffffffffffffffffffffffff161415905090565b6000809054906101000a900473ffffffffffffffffffffffffffffffffffffffff1673ffffffffffffffffffffffffffffffffffffffff163373ffffffffffffffffffffffffffffffffffffffff161415156113e757600080fd5b6000809054906101000a900473ffffffffffffffffffffffffffffffffffffffff1673ffffffffffffffffffffffffffffffffffffffff16ff5b6000809054906101000a900473ffffffffffffffffffffffffffffffffffffffff1673ffffffffffffffffffffffffffffffffffffffff163373ffffffffffffffffffffffffffffffffffffffff1614151561147c57600080fd5b600660009054906101000a900460ff1615151561149857600080fd5b6114a061128d565b6009819055506001600660006101000a81548160ff021916908315150217905550426007819055507fb7152de35affc741a6b2355d37e9caf51fe847cacfccd414be5e15996ff7e6c66009546040518082815260200191505060405180910390a1565b6000809054906101000a900473ffffffffffffffffffffffffffffffffffffffff1681565b60085481565b6000806000809054906101000a900473ffffffffffffffffffffffffffffffffffffffff1673ffffffffffffffffffffffffffffffffffffffff163373ffffffffffffffffffffffffffffffffffffffff1614151561158c57600080fd5b600660009054906101000a900460ff161515156115a857600080fd5b600091505b82518210156116d65782828151811015156115c457fe5b9060200190602002015190506115d9816118f5565b15156115e457600080fd5b6115ed816117a2565b1515156115f957600080fd5b7f1c5e7a37dd4095194684d8f835d2c81b686d64d685032055a7cd02edc7c49ed881604051808273ffffffffffffffffffffffffffffffffffffffff1673ffffffffffffffffffffffffffffffffffffffff16815260200191505060405180910390a16001600c60008373ffffffffffffffffffffffffffffffffffffffff1673ffffffffffffffffffffffffffffffffffffffff16815260200190815260200160002060010160146101000a81548160ff02191690831515021790555060056000815480929190600101919050555081806001019250506115ad565b505050565b6000809054906101000a900473ffffffffffffffffffffffffffffffffffffffff1673ffffffffffffffffffffffffffffffffffffffff163373ffffffffffffffffffffffffffffffffffffffff1614151561173657600080fd5b600660009054906101000a900460ff1615151561175257600080fd5b8060038190555050565b600660019054906101000a900460ff1681565b600d6020528060005260406000206000915054906101000a900473ffffffffffffffffffffffffffffffffffffffff1681565b60006117ad826118f5565b80156118055750600c60008373ffffffffffffffffffffffffffffffffffffffff1673ffffffffffffffffffffffffffffffffffffffff16815260200190815260200160002060010160149054906101000a900460ff165b9050919050565b600b8054600181600116156101000203166002900480601f0160208091040260200160405190810160405280929190818152602001828054600181600116156101000203166002900480156118a25780601f10611877576101008083540402835291602001916118a2565b820191906000526020600020905b81548152906001019060200180831161188557829003601f168201915b505050505081565b600a60009054906101000a900473ffffffffffffffffffffffffffffffffffffffff1681565b60003073ffffffffffffffffffffffffffffffffffffffff1631905090565b60055481565b60008073ffffffffffffffffffffffffffffffffffffffff16600c60008473ffffffffffffffffffffffffffffffffffffffff1673ffffffffffffffffffffffffffffffffffffffff16815260200190815260200160002060010160009054906101000a900473ffffffffffffffffffffffffffffffffffffffff1673ffffffffffffffffffffffffffffffffffffffff1614159050919050565b60025481565b6000809054906101000a900473ffffffffffffffffffffffffffffffffffffffff1673ffffffffffffffffffffffffffffffffffffffff163373ffffffffffffffffffffffffffffffffffffffff161415156119f157600080fd5b600660009054906101000a900460ff16151515611a0d57600080fd5b6002546009819055506001600660016101000a81548160ff0219169083151502179055506001600660006101000a81548160ff021916908315150217905550426007819055507faac5ae2dfd439bb6c2f88b2d8af5b285cfee7584ad0d13ae7c00c1226c7c4c7b60405160405180910390a1565b600660009054906101000a900460ff16151515611a9d57600080fd5b611aa681611d56565b7f8d272c75acbe64f584f00b43ea2e4ac139abac8e8b8f118e5588e14bbb5c40313382604051808373ffffffffffffffffffffffffffffffffffffffff1673ffffffffffffffffffffffffffffffffffffffff1681526020018060200180602001838103835284818151815260200191508051906020019080838360005b83811015611b3f578082015181840152602081019050611b24565b50505050905090810190601f168015611b6c5780820380516001836020036101000a031916815260200191505b5083810382526000815260200160200194505050505060405180910390a150565b6000809054906101000a900473ffffffffffffffffffffffffffffffffffffffff1673ffffffffffffffffffffffffffffffffffffffff163373ffffffffffffffffffffffffffffffffffffffff16141515611be857600080fd5b600073ffffffffffffffffffffffffffffffffffffffff168173ffffffffffffffffffffffffffffffffffffffff1614151515611c2457600080fd5b8073ffffffffffffffffffffffffffffffffffffffff166000809054906101000a900473ffffffffffffffffffffffffffffffffffffffff1673ffffffffffffffffffffffffffffffffffffffff167f8be0079c531659141344cd1fd0a4f28419497f9722a3daafe3b4186f6b6457e060405160405180910390a3806000806101000a81548173ffffffffffffffffffffffffffffffffffffffff021916908373ffffffffffffffffffffffffffffffffffffffff16021790555050565b6000809054906101000a900473ffffffffffffffffffffffffffffffffffffffff1673ffffffffffffffffffffffffffffffffffffffff163373ffffffffffffffffffffffffffffffffffffffff16141515611d3d57600080fd5b8073ffffffffffffffffffffffffffffffffffffffff16ff5b60025434141515611d6657600080fd5b600354600454101515611d7857600080fd5b611d81336118f5565b151515611d8d57600080fd5b60046000815480929190600101919050555033600d6000600454815260200190815260200160002060006101000a81548173ffffffffffffffffffffffffffffffffffffffff021916908373ffffffffffffffffffffffffffffffffffffffff1602179055506080604051908101604052808281526020013373ffffffffffffffffffffffffffffffffffffffff16815260200160001515815260200160001515815250600c60003373ffffffffffffffffffffffffffffffffffffffff1673ffffffffffffffffffffffffffffffffffffffff1681526020019081526020016000206000820151816000019080519060200190611e8c929190611f1a565b5060208201518160010160006101000a81548173ffffffffffffffffffffffffffffffffffffffff021916908373ffffffffffffffffffffffffffffffffffffffff16021790555060408201518160010160146101000a81548160ff02191690831515021790555060608201518160010160156101000a81548160ff02191690831515021790555090505050565b828054600181600116156101000203166002900490600052602060002090601f016020900481019282601f10611f5b57805160ff1916838001178555611f89565b82800160010185558215611f89579182015b82811115611f88578251825591602001919060010190611f6d565b5b509050611f969190611f9a565b5090565b611fbc91905b80821115611fb8576000816000905550600101611fa0565b5090565b905600a165627a7a72305820630ca4772046bda99f7d20010e7505fd03b764f9d356e58d74cad767197e49090029",
  "source": "pragma solidity ^0.4.19;\n\nimport './ConfirmationRepository.sol';\nimport './zeppelin/ownership/Ownable.sol';\nimport './zeppelin/lifecycle/Destructible.sol';\n\ncontract Conference is Destructible {\n\tstring public name;\n\tuint256 public deposit;\n\tuint public limitOfParticipants;\n\tuint public registered;\n\tuint public attended;\n\tbool public ended;\n\tbool public cancelled;\n\tuint public endedAt;\n\tuint public coolingPeriod;\n\tuint256 public payoutAmount;\n\tConfirmationRepository public confirmationRepository;\n\tstring public encryption;\n\n\tmapping (address => Participant) public participants;\n\tmapping (uint => address) public participantsIndex;\n\tbool paid;\n\n\tstruct Participant {\n\t\tstring participantName;\n\t\taddress addr;\n\t\tbool attended;\n\t\tbool paid;\n\t}\n\n\tevent RegisterEvent(address addr, string participantName, string _encryption);\n\tevent AttendEvent(address addr);\n\tevent PaybackEvent(uint256 _payout);\n\tevent WithdrawEvent(address addr, uint256 _payout);\n\tevent CancelEvent();\n\tevent ClearEvent(address addr, uint256 leftOver);\n\n\t/* Modifiers */\n\tmodifier onlyActive {\n\t\trequire(!ended);\n\t\t_;\n\t}\n\n\tmodifier onlyEnded {\n\t\trequire(ended);\n\t\t_;\n\t}\n\n\t/* Public functions */\n\n\tfunction Conference (\n\t\tstring _name,\n\t\tuint256 _deposit,\n\t\tuint _limitOfParticipants,\n\t\tuint _coolingPeriod,\n\t\taddress _confirmation_repository_address,\n\t\tstring _encryption\n\t) public {\n\t\tif(bytes(_name).length != 0){\n\t\t\tname = _name;\n\t\t}else{\n\t\t\tname = 'Test';\n\t\t}\n\n\t\tif(_deposit != 0){\n\t\t\tdeposit = _deposit;\n\t\t}else{\n\t\t\tdeposit = 0.02 ether;\n\t\t}\n\n\t\tif(_limitOfParticipants !=0){\n\t\t\tlimitOfParticipants = _limitOfParticipants;\n\t\t}else{\n\t\t\tlimitOfParticipants = 20;\n\t\t}\n\n\t\tif (_coolingPeriod != 0) {\n\t\t\tcoolingPeriod = _coolingPeriod;\n\t\t} else {\n\t\t\tcoolingPeriod = 1 weeks;\n\t\t}\n\n\t\tif (bytes(_encryption).length != 0) {\n\t\t\tencryption = _encryption;\n\t\t}\n\n\t\tif (_confirmation_repository_address !=0) {\n\t\t\tconfirmationRepository = ConfirmationRepository(_confirmation_repository_address);\n\t\t}\n\t}\n\n\tfunction registerWithEncryption(string _participant, string _encrypted) public payable onlyActive{\n\t\tregisterInternal(_participant);\n\t\tRegisterEvent(msg.sender, _participant, _encrypted);\n\t}\n\n\tfunction register(string _participant) public payable onlyActive{\n\t\tregisterInternal(_participant);\n\t\tRegisterEvent(msg.sender, _participant, '');\n\t}\n\n\tfunction registerInternal(string _participant) internal {\n\t\trequire(msg.value == deposit);\n\t\trequire(registered < limitOfParticipants);\n\t\trequire(!isRegistered(msg.sender));\n\n\t\tregistered++;\n\t\tparticipantsIndex[registered] = msg.sender;\n\t\tparticipants[msg.sender] = Participant(_participant, msg.sender, false, false);\n\t}\n\n\tfunction attendWithConfirmation(bytes32 _confirmation) public onlyActive{\n\t\trequire(isRegistered(msg.sender));\n\t\trequire(!isAttended(msg.sender));\n\t\trequire(confirmationRepository.claim(_confirmation, msg.sender));\n\n\t\tparticipants[msg.sender].attended = true;\n\t\tattended++;\n\t\tAttendEvent(msg.sender);\n\t}\n\n\tfunction withdraw() public onlyEnded{\n\t\trequire(payoutAmount > 0);\n\t\tParticipant participant = participants[msg.sender];\n\t\trequire(participant.addr == msg.sender);\n\t\trequire(cancelled || participant.attended);\n\t\trequire(participant.paid == false);\n\n\t\tparticipant.paid = true;\n\t\tassert(participant.addr.send(payoutAmount));\n\t\tWithdrawEvent(msg.sender, payoutAmount);\n\t}\n\n\t/* Constants */\n\tfunction totalBalance() constant public returns (uint256){\n\t\treturn this.balance;\n\t}\n\n\tfunction confirmation() constant public returns (bool){\n\t\treturn address(confirmationRepository) != address(0);\n\t}\n\n\tfunction isRegistered(address _addr) constant public returns (bool){\n\t\treturn participants[_addr].addr != address(0);\n\t}\n\n\tfunction isAttended(address _addr) constant public returns (bool){\n\t\treturn isRegistered(_addr) && participants[_addr].attended;\n\t}\n\n\tfunction isPaid(address _addr) constant public returns (bool){\n\t\treturn isRegistered(_addr) && participants[_addr].paid;\n\t}\n\n\tfunction payout() constant public returns(uint256){\n\t\tif (attended == 0) return 0;\n\t\treturn uint(totalBalance()) / uint(attended);\n\t}\n\n\t/* Admin only functions */\n\n\tfunction payback() public onlyOwner onlyActive{\n\t\tpayoutAmount = payout();\n\t\tended = true;\n\t\tendedAt = now;\n\t\tPaybackEvent(payoutAmount);\n\t}\n\n\tfunction cancel() public onlyOwner onlyActive{\n\t\tpayoutAmount = deposit;\n\t\tcancelled = true;\n\t\tended = true;\n\t\tendedAt = now;\n\t\tCancelEvent();\n\t}\n\n\t/* return the remaining of balance if there are any unclaimed after cooling period */\n\tfunction clear() public onlyOwner onlyEnded{\n\t\trequire(now > endedAt + coolingPeriod);\n\t\trequire(ended);\n\t\tvar leftOver = totalBalance();\n\t\trequire(owner.send(leftOver));\n\t\tClearEvent(owner, leftOver);\n\t}\n\n\tfunction setLimitOfParticipants(uint _limitOfParticipants) public onlyOwner onlyActive{\n\t\tlimitOfParticipants = _limitOfParticipants;\n\t}\n\n\tfunction attend(address[] _addresses) public onlyOwner onlyActive{\n\t\tfor(uint i=0;i<_addresses.length;i++){\n\t\t\tvar _addr = _addresses[i];\n\t\t\trequire(isRegistered(_addr));\n\t\t\trequire(!isAttended(_addr));\n\t\t\tAttendEvent(_addr);\n\t\t\tparticipants[_addr].attended = true;\n\t\t\tattended++;\n\t\t}\n\t}\n}\n",
  "sourcePath": "/Users/makoto/work/blockparty/contracts/Conference.sol",
  "compiler": {
    "name": "solc",
    "version": "0.4.19+commit.c4cbbb05.Emscripten.clang"
  },
  "schemaVersion": "1.0.1",
  "updatedAt": "2018-02-13T02:13:59.951Z"
}